{
  "_format": "hh-sol-artifact-1",
  "contractName": "todo",
  "sourceName": "contracts/todo.sol",
  "abi": [
    {
      "inputs": [],
      "stateMutability": "nonpayable",
      "type": "constructor"
    },
    {
      "inputs": [
        {
          "internalType": "uint256",
          "name": "",
          "type": "uint256"
        },
        {
          "internalType": "uint256",
          "name": "",
          "type": "uint256"
        }
      ],
      "name": "collection",
      "outputs": [
        {
          "internalType": "string",
          "name": "",
          "type": "string"
        }
      ],
      "stateMutability": "view",
      "type": "function"
    },
    {
      "inputs": [
        {
          "internalType": "uint256",
          "name": "time",
          "type": "uint256"
        }
      ],
      "name": "retrive",
      "outputs": [
        {
          "internalType": "string[]",
          "name": "",
          "type": "string[]"
        }
      ],
      "stateMutability": "view",
      "type": "function"
    },
    {
      "inputs": [
        {
          "internalType": "string[]",
          "name": "element",
          "type": "string[]"
        }
      ],
      "name": "store",
      "outputs": [
        {
          "internalType": "string[]",
          "name": "",
          "type": "string[]"
        }
      ],
      "stateMutability": "nonpayable",
      "type": "function"
    }
  ],
  "bytecode": "0x60806040523480156200001157600080fd5b506200005d6040518060400160405280601581526020017f68656c6c6f207468697320697320776f726b696e6700000000000000000000008152506200006360201b6200039b1760201c565b620001f7565b62000103816040516024016200007a919062000170565b6040516020818303038152906040527f41304fac000000000000000000000000000000000000000000000000000000007bffffffffffffffffffffffffffffffffffffffffffffffffffffffff19166020820180517bffffffffffffffffffffffffffffffffffffffffffffffffffffffff83818316178352505050506200010660201b60201c565b50565b60008151905060006a636f6e736f6c652e6c6f679050602083016000808483855afa5050505050565b60006200013c8262000194565b6200014881856200019f565b93506200015a818560208601620001b0565b6200016581620001e6565b840191505092915050565b600060208201905081810360008301526200018c81846200012f565b905092915050565b600081519050919050565b600082825260208201905092915050565b60005b83811015620001d0578082015181840152602081019050620001b3565b83811115620001e0576000848401525b50505050565b6000601f19601f8301169050919050565b610b9d80620002076000396000f3fe608060405234801561001057600080fd5b50600436106100415760003560e01c80634afbcdae146100465780639e80380114610076578063ae00106a146100a6575b600080fd5b610060600480360381019061005b91906107cb565b6100d6565b60405161006d9190610933565b60405180910390f35b610090600480360381019061008b91906107a2565b61018f565b60405161009d9190610911565b60405180910390f35b6100c060048036038101906100bb9190610761565b61027a565b6040516100cd9190610911565b60405180910390f35b600060205281600052604060002081815481106100f257600080fd5b9060005260206000200160009150915050805461010e90610aaf565b80601f016020809104026020016040519081016040528092919081815260200182805461013a90610aaf565b80156101875780601f1061015c57610100808354040283529160200191610187565b820191906000526020600020905b81548152906001019060200180831161016a57829003601f168201915b505050505081565b6060600080838152602001908152602001600020805480602002602001604051908101604052809291908181526020016000905b8282101561026f5783829060005260206000200180546101e290610aaf565b80601f016020809104026020016040519081016040528092919081815260200182805461020e90610aaf565b801561025b5780601f106102305761010080835404028352916020019161025b565b820191906000526020600020905b81548152906001019060200180831161023e57829003601f168201915b5050505050815260200190600101906101c3565b505050509050919050565b6060600042905061028a81610434565b8260008083815260200190815260200160002090805190602001906102b09291906104f6565b50600080828152602001908152602001600020805480602002602001604051908101604052809291908181526020016000905b8282101561038f57838290600052602060002001805461030290610aaf565b80601f016020809104026020016040519081016040528092919081815260200182805461032e90610aaf565b801561037b5780601f106103505761010080835404028352916020019161037b565b820191906000526020600020905b81548152906001019060200180831161035e57829003601f168201915b5050505050815260200190600101906102e3565b50505050915050919050565b610431816040516024016103af9190610933565b6040516020818303038152906040527f41304fac000000000000000000000000000000000000000000000000000000007bffffffffffffffffffffffffffffffffffffffffffffffffffffffff19166020820180517bffffffffffffffffffffffffffffffffffffffffffffffffffffffff83818316178352505050506104cd565b50565b6104ca816040516024016104489190610955565b6040516020818303038152906040527ff5b1bba9000000000000000000000000000000000000000000000000000000007bffffffffffffffffffffffffffffffffffffffffffffffffffffffff19166020820180517bffffffffffffffffffffffffffffffffffffffffffffffffffffffff83818316178352505050506104cd565b50565b60008151905060006a636f6e736f6c652e6c6f679050602083016000808483855afa5050505050565b828054828255906000526020600020908101928215610545579160200282015b82811115610544578251829080519060200190610534929190610556565b5091602001919060010190610516565b5b50905061055291906105dc565b5090565b82805461056290610aaf565b90600052602060002090601f01602090048101928261058457600085556105cb565b82601f1061059d57805160ff19168380011785556105cb565b828001600101855582156105cb579182015b828111156105ca5782518255916020019190600101906105af565b5b5090506105d89190610600565b5090565b5b808211156105fc57600081816105f3919061061d565b506001016105dd565b5090565b5b80821115610619576000816000905550600101610601565b5090565b50805461062990610aaf565b6000825580601f1061063b575061065a565b601f0160209004906000526020600020908101906106599190610600565b5b50565b600061067061066b846109a1565b610970565b9050808382526020820190508260005b858110156106b057813585016106968882610722565b845260208401935060208301925050600181019050610680565b5050509392505050565b60006106cd6106c8846109cd565b610970565b9050828152602081018484840111156106e557600080fd5b6106f0848285610a6d565b509392505050565b600082601f83011261070957600080fd5b813561071984826020860161065d565b91505092915050565b600082601f83011261073357600080fd5b81356107438482602086016106ba565b91505092915050565b60008135905061075b81610b50565b92915050565b60006020828403121561077357600080fd5b600082013567ffffffffffffffff81111561078d57600080fd5b610799848285016106f8565b91505092915050565b6000602082840312156107b457600080fd5b60006107c28482850161074c565b91505092915050565b600080604083850312156107de57600080fd5b60006107ec8582860161074c565b92505060206107fd8582860161074c565b9150509250929050565b60006108138383610890565b905092915050565b600061082682610a0d565b6108308185610a30565b935083602082028501610842856109fd565b8060005b8581101561087e578484038952815161085f8582610807565b945061086a83610a23565b925060208a01995050600181019050610846565b50829750879550505050505092915050565b600061089b82610a18565b6108a58185610a41565b93506108b5818560208601610a7c565b6108be81610b3f565b840191505092915050565b60006108d482610a18565b6108de8185610a52565b93506108ee818560208601610a7c565b6108f781610b3f565b840191505092915050565b61090b81610a63565b82525050565b6000602082019050818103600083015261092b818461081b565b905092915050565b6000602082019050818103600083015261094d81846108c9565b905092915050565b600060208201905061096a6000830184610902565b92915050565b6000604051905081810181811067ffffffffffffffff8211171561099757610996610b10565b5b8060405250919050565b600067ffffffffffffffff8211156109bc576109bb610b10565b5b602082029050602081019050919050565b600067ffffffffffffffff8211156109e8576109e7610b10565b5b601f19601f8301169050602081019050919050565b6000819050602082019050919050565b600081519050919050565b600081519050919050565b6000602082019050919050565b600082825260208201905092915050565b600082825260208201905092915050565b600082825260208201905092915050565b6000819050919050565b82818337600083830152505050565b60005b83811015610a9a578082015181840152602081019050610a7f565b83811115610aa9576000848401525b50505050565b60006002820490506001821680610ac757607f821691505b60208210811415610adb57610ada610ae1565b5b50919050565b7f4e487b7100000000000000000000000000000000000000000000000000000000600052602260045260246000fd5b7f4e487b7100000000000000000000000000000000000000000000000000000000600052604160045260246000fd5b6000601f19601f8301169050919050565b610b5981610a63565b8114610b6457600080fd5b5056fea2646970667358221220c0147f4a03db7cb1ba59f3e076186f3ff4633d6ffa725c2eca9bfb7c3c7063ec64736f6c63430008000033",
  "linkReferences": {},
  "deployedLinkReferences": {}
}